:040000005CEF00F0C1
:100008006182FACF01F0FBCF02F0E9CF03F0EACF2B
:1000180004F0E1CF05F0E2CF06F0D9CF07F0DACF50
:1000280008F0F3CF09F0F4CF0AF0F6CF0BF0F7CFD2
:100038000CF0F8CF0DF0F5CF0EF0F2A203D0F2924B
:10004800010E5F6EF2A003D081CF60F0F2909EA205
:1000580011D09E925B4A5C2A5CBE0CD05C5004E1D5
:10006800640E5B5CD8A006D0000E5C6E000E5B6E62
:10007800010E5E6E0EC0F5FF0DC0F8FF0CC0F7FF55
:100088000BC0F6FF0AC0F4FF09C0F3FF08C0DAFF8F
:1000980007C0D9FF06C0E2FF05C0E1FF04C0EAFFC0
:1000A80003C0E9FF02C0FBFF01C0FAFF6192110023
:1000B80006EF03F0F70EF66E7F0EF76E20EE1EF0D9
:1000C800070E0900F5CFDEFFE806FBE2EF0EF66E3D
:1000D8007F0EF76E20EE26F0070E0900F5CFDEFF43
:1000E800E806FBE229EC03F00FC030F010C031F055
:1000F8005D50D8B404D0020E5D18D8A40FD030C01B
:100108001CF031C01DF01C1E1D1E1C4A1D2AFF0EAE
:100118001C24346E030E1D20356E04D030C034F01C
:1001280031C035F05D50020D1E0EF324D96E000E5D
:10013800F420DA6EDECF2EF0DDCF2FF05D50020D09
:10014800260EF324D96E000EF420DA6EDECF32F0DC
:10015800DDCF33F02E50345C2F503558D8B005D051
:10016800000E356E000E346E0ED02EC01CF02FC05F
:100178001DF01C1E1D1E1C4A1D2A34501C24346EE2
:1001880035501D20356E3450325C35503358D8B058
:1001980004D032C034F033C035F034C00FF035C06D
:1001A80010F0000E126E116859EC03F00FC015F034
:1001B80010C016F032C017F033C018F0B8EC02F0D7
:1001C8005D50020D530EF324D96E000EF420DA6E42
:1001D80015C0DEFF16C0DDFF5D50020D530EF3247F
:1001E800D96E000EF420DA6EDE52DE04D8A00CD0F0
:1001F8005D50020D530EF324D96E000EF420DA6E12
:10020800FF0EDE6E000EDD6E5D2A030E5D6402D009
:10021800000E5D6E5D506CEC03F01200000E506E27
:1002280049EC02F0000E106EC80E0F6E42EC03F09F
:100238008184818281805E50D8B4FDD7000E5E6EC5
:10024800502A040E5018D8A403D08180819206D079
:10025800080E5018D8A404D081908182819408D0C7
:100268000B0E506405D0819081928184000E506EEF
:100278005EEC00F0810E5524486EFF0E5620496E44
:10028800810E5324466EFF0E5420476E810E59246A
:100298004C6EFF0E5A204D6E810E57244A6EFF0E8B
:1002A80058204B6E48C051F049C052F051C039F047
:1002B80052C03AF046C051F047C052F051C03BF02E
:1002C80052C03CF04CC051F04DC052F051C03DF00E
:1002D80052C03EF04AC051F04BC052F051C03FF0FE
:1002E80052C040F0000E366E910E376E0D0E386E0D
:1002F800360E1C6E000E1D6E3850FE0F1E6EE1ECA1
:1003080002F01CC051F01DC052F051C041F052C063
:1003180042F0360E156E000E166EC00E176E000EE9
:10032800186E385009EC02F04E6E200E4E6083D7DE
:10033800000E4F6E0CD04F50010DC00EF324D96E35
:10034800000EF420DA6EDF5076EC03F04F2A4E50A0
:100358004F5CD8B070D7EFD7146E11C0D9FF12C058
:10036800DAFF1F0EDF6402D0000E1200240E1418EC
:10037800D8B408D0100E1418D8B404D00D0E141820
:10038800D8A41CD011C0D9FF12C0DAFFDF50136EF9
:100398001350010DF3500F24D96EF4501020DA6E6B
:1003A800100EDF6E11C0D9FF12C0DAFFDF50136ED6
:1003B800132811C0D9FF12C0DAFFDF6E11C0D9FFB0
:1003C80012C0DAFF1F0EDF6402D0000E120011C047
:1003D800D9FF12C0DAFFDF50136E1350010DF3502E
:1003E8000F24D96EF4501020DA6E14C0DFFF11C04C
:1003F800D9FF12C0DAFFDF50136E132811C0D9FFDE
:1004080012C0DAFFDF6E010E1200196E000E1B6EAD
:10041800210E196038D01B50010DF3501724D96EE6
:10042800F4501820DA6E240EDF6E1B2A000E1A6EA6
:1004380019D017C00FF018C010F01B0E116E000E67
:10044800126E1A50010DF3501524D96EF45016206F
:10045800DA6EDF50B0EC01F00009D8A402D0000E2B
:1004680012001A2A19501A5CD8A0E3D71B50010DA4
:10047800F3501724D96EF4501820DA6E0D0EDF6E83
:100488001B2A1B501200000E1200F29E000EC26EB4
:10049800C198C19AC186C194C182C180000EC06E44
:1004A800C08EC08AC088C086C084C082C080DF0E6B
:1004B800926E808AF80E936EF19EBF0E946EAC8495
:1004C800130EAF6EAC98AB8EAB88AB9A9D989D9A85
:1004D800AC9CAB9CAC8AB898B89A480ECB6E000E10
:1004E800CA6ECA92CA80CA8CCA8ACA88CA86CA848C
:1004F800000EF26EF298F2969D82F28C000EF16E6A
:10050800F19EF19CF28E120011C01AF01B6A1A506B
:100518000F18186E1B501018196EFF0E1814126E53
:10052800000E1914136ED89012361336EF0E1224DB
:10053800F66E7D0E1320F76E0900F5CF14F0090052
:10054800F5CF15F00FC016F010C017F017C016F051
:10055800176A145016180F6E15501718106E0FC022
:100568000FF010C010F01200000E1A6E000E196E77
:1005780017501810D8B41CD0010E1B6E04D0D89098
:10058800173618361B2A18AEFAD7D89019361A36E5
:100598001750155C18501658D8A005D01750155E7E
:1005A8001850165A1980D890183217321B2EEDD7CA
:1005B80019C015F01AC016F012001F6820681F68CD
:1005C8002068000E216E15D01FC00FF020C010F05B
:1005D8002150010DF3501C24D96EF4501D20DA6E01
:1005E800DF50116E88EC02F00FC01FF010C020F031
:1005F800212A1E50215CD8A0E7D71FC01CF020C0BC
:100608001DF0120001EE80F014EE00F0EE6AE550E5
:10061800E150FCE1E250FAE101EE00F0800EEE6AF2
:10062800E806FDE100EE80F0600EEE6AE806FDE106
:1006380000EE53F00E0EEE6AE806FDE1619061925D
:10064800000EF86E000112EF01F0C282C2B2FED7AE
:10065800C4CF15F0166A1550126E116A000E1114E7
:10066800156E030E1214166E1550C310136E165025
:10067800146E13C00FF014C010F012000DD0640EE9
:10068800116E06D0040E126E12061228D8A4FCD7DA
:1006980011061128D8A4F6D70F06D8A010060F28DF
:1006A800EEE11028D8B41200EAD70F501102F3CFA8
:1006B80013F0F4CF14F00F501202F3501426105018
:1006C8001102F350142613C00FF014C010F01200DA
:1006D800106E10C00FF0D8900F36D8900F360F2834
:1006E800C26E12000F6E9EA8FED70FC0ADFF12009B
:107DEE00000000C1C081C1400101C3C00380024137
:107DFE00C201C6C006800741C70005C1C581C44087
:107E0E000401CCC00C800D41CD000FC1CF81CE40FE
:107E1E000E000AC1CA81CB400B01C9C009800841BE
:107E2E00C801D8C018801941D9001BC1DB81DA40C6
:107E3E001A001EC1DE81DF401F01DDC01D801C4106
:107E4E00DC0014C1D481D5401501D7C0178016416E
:107E5E00D601D2C012801341D30011C1D181D040BE
:107E6E001001F0C030803141F10033C1F381F24096
:107E7E00320036C1F681F7403701F5C03580344106
:107E8E00F4003CC1FC81FD403D01FFC03F803E41FE
:107E9E00FE01FAC03A803B41FB0039C1F981F8403E
:107EAE00380028C1E881E9402901EBC02B802A4126
:107EBE00EA01EEC02E802F41EF002DC1ED81EC4086
:107ECE002C01E4C024802541E50027C1E781E6406E
:107EDE00260022C1E281E3402301E1C0218020413E
:107EEE00E001A0C060806141A10063C1A381A240F6
:107EFE00620066C1A681A7406701A5C06580644186
:107F0E00A4006CC1AC81AD406D01AFC06F806E41FD
:107F1E00AE01AAC06A806B41AB0069C1A981A840BD
:107F2E00680078C1B881B9407901BBC07B807A41C5
:107F3E00BA01BEC07E807F41BF007DC1BD81BC4005
:107F4E007C01B4C074807541B50077C1B781B6406D
:107F5E00760072C1B281B3407301B1C071807041BD
:107F6E00B00050C190819140510193C05380524155
:107F7E00920196C056805741970055C19581944005
:107F8E0054019CC05C805D419D005FC19F819E40FD
:107F9E005E005AC19A819B405B0199C0598058413D
:107FAE00980188C04880494189004BC18B818A4025
:107FBE004A004EC18E818F404F018DC04D804C4185
:107FCE008C0044C184818540450187C0478046416D
:107FDE00860182C042804341830041C1818180403D
:107FEE00409600C800C800C800C2019001AE0190C2
:027FFE00010080
:020000040020DA
:08000000FFFFFFFFFFFFFFFF00
:020000040030CA
:0E000000FF02181EFF8180FF0FC00FE00F40AF
:00000001FF
