:040000005CEF00F0C1
:100008006482FACF01F0FBCF02F0E9CF03F0EACF28
:1000180004F0E1CF05F0E2CF06F0D9CF07F0DACF50
:1000280008F0F3CF09F0F4CF0AF0F6CF0BF0F7CFD2
:100038000CF0F8CF0DF0F5CF0EF0F2A203D0F2924B
:10004800010E426EF2A003D081CF43F0F2909EA23F
:1000580011D09E923E4A3F2A3FBE0CD03F5004E149
:10006800640E3E5CD8A006D0000E3F6E000E3E6EB9
:10007800010E416E0EC0F5FF0DC0F8FF0CC0F7FF72
:100088000BC0F6FF0AC0F4FF09C0F3FF08C0DAFF8F
:1000980007C0D9FF06C0E2FF05C0E1FF04C0EAFFC0
:1000A80003C0E9FF02C0FBFF01C0FAFF6492110020
:1000B800E3EF02F0F70EF66E7F0EF76E20EE1EF0FD
:1000C800070E0900F5CFDEFFE806FBE2EF0EF66E3D
:1000D8007F0EF76E20EE26F0070E0900F5CFDEFF43
:1000E800E806FBE206EC03F00FC030F010C031F078
:1000F8004050D8B404D0020E4018D8A40FD030C055
:100108001CF031C01DF01C1E1D1E1C4A1D2AFF0EAE
:100118001C24346E030E1D20356E04D030C034F01C
:1001280031C035F04050020D1E0EF324D96E000E7A
:10013800F420DA6EDECF2EF0DDCF2FF04050020D26
:10014800260EF324D96E000EF420DA6EDECF32F0DC
:10015800DDCF33F02E50345C2F503558D8B005D051
:10016800000E356E000E346E0ED02EC01CF02FC05F
:100178001DF01C1E1D1E1C4A1D2A34501C24346EE2
:1001880035501D20356E3450325C35503358D8B058
:1001980004D032C034F033C035F034C00FF035C06D
:1001A80010F0000E126E116836EC03F00FC015F057
:1001B80010C016F032C017F033C018F0BAEC02F0D5
:1001C8004050020D360EF324D96E000EF420DA6E7C
:1001D80015C0DEFF16C0DDFF4050020D360EF324B9
:1001E800D96E000EF420DA6EDE52DE04D8A00CD0F0
:1001F8004050020D360EF324D96E000EF420DA6E4C
:10020800FF0EDE6E000EDD6E402A030E406402D043
:10021800000E406E405049EC03F01200000E000141
:10022800D26F7BEC02F0000E106EC80E0F6E1FEC42
:1002380003F08184818281804150D8B4FDD7000EBB
:10024800416E0001D22B040E0001D219D8A403D0AC
:100258008180819207D0080E0001D219D8A404D059
:100268008190818281940AD00B0E0001D26506D05C
:10027800819081928184000E0001D26F5EEC00F0C3
:10028800810E38240001C26FFF0E39200001C36FB0
:10029800810E36240001C06FFF0E37200001C16FA8
:1002A800810E3C240001C66FFF0E3D200001C76F80
:1002B800810E3A240001C46FFF0E3B200001C56F78
:1002C800C2C0D3F0C3C0D4F0D3C0C8F0D4C0C9F002
:1002D800C0C0D3F0C1C0D4F0D3C0CAF0D4C0CBF0F2
:1002E800C6C0D3F0C7C0D4F0D3C0CCF0D4C0CDF0D2
:1002F800C4C0D3F0C5C0D4F0D3C0CEF0D4C0CFF0C2
:10030800910E156E080E166EC80E176E000E186E3A
:10031800440E196E000E1A6E000EB2EC01F00001C8
:10032800D06F200E0001D06187D7000E0001D16F79
:100338000ED00001D151010D440EF324D96E000EE8
:10034800F420DA6EDF5053EC03F00001D12B0001EA
:10035800D0510001D15DD8B06FD7EBD71B6E000E1E
:100368001D6E210E166068D01D50010DF350192422
:10037800D96EF4501A20DA6E240EDF6E1D2A19C0C9
:100388000FF01AC010F01D0E116E000E126E1B50E9
:1003980022EC02F00009D8A402D0000E120019C005
:1003A8000FF01AC010F01D0E116E000E126E1550CF
:1003B80022EC02F00009D8A402D0000E120019C0E5
:1003C8000FF01AC010F01D0E116E000E126E1650AE
:1003D80022EC02F00009D8A402D0000E1200000E90
:1003E8001C6E19D019C00FF01AC010F01D0E116E36
:1003F800000E126E1C50010DF3501724D96EF450E4
:100408001820DA6EDF5022EC02F00009D8A402D0DE
:10041800000E12001C2A16501C5CD8A0E3D71D50F1
:10042800010DF3501924D96EF4501A20DA6E0D0E0E
:10043800DF6E1D2A1D501200000E1200146E11C02E
:10044800D9FF12C0DAFF1F0EDF6402D0000E1200BF
:10045800240E1418D8B408D0100E1418D8B404D028
:100468000D0E1418D8A41CD011C0D9FF12C0DAFF81
:10047800DF50136E1350010DF3500F24D96EF45052
:100488001020DA6E100EDF6E11C0D9FF12C0DAFF2D
:10049800DF50136E132811C0D9FF12C0DAFFDF6EC8
:1004A80011C0D9FF12C0DAFF1F0EDF6402D0000EA0
:1004B800120011C0D9FF12C0DAFFDF50136E1350BB
:1004C800010DF3500F24D96EF4501020DA6E14C0C9
:1004D800DFFF11C0D9FF12C0DAFFDF50136E1328F7
:1004E80011C0D9FF12C0DAFFDF6E010E1200F29EB2
:1004F800000EC26EC198C19AC186C194C182C180E2
:10050800000EC06EC08EC08AC088C086C084C082FB
:10051800C080DF0E926E808AF80E936EF19EBF0E39
:10052800946EAC84130EAF6EAC98AB8EAB88AB9A5E
:100538009D989D9AAC9CAB9CAC8AB898B89A480E8A
:10054800CB6E000ECA6ECA92CA80CA8CCA8ACA8882
:10055800CA86CA84000EF26EF298F2969D82F28CD8
:10056800000EF16EF19EF19CF28E1200000E1B6ED1
:10057800000E1A6E17501810D8B41CD0010E196E40
:1005880004D0D89017361836192A18AEFAD7D8904A
:100598001A361B361750155C18501658D8A005D0B7
:1005A8001750155E1850165A1A80D89018321732FC
:1005B800192EEDD71AC015F01BC016F0120001EE67
:1005C80080F014EE00F0EE6AE550E150FCE1E250F4
:1005D800FAE101EE00F0800EEE6AE806FDE100EEB9
:1005E80080F0400EEE6AE806FDE100EE36F02E0ED1
:1005F800EE6AE806FDE164906492000EF86E000170
:1006080012EF01F0C282C2B2FED7C4CF15F0166A4B
:100618001550126E116A000E1114156E030E121485
:10062800166E1550C310136E1650146E13C00FF0CB
:1006380014C010F012000DD0640E116E06D0040E16
:10064800126E12061228D8A4FCD711061128D8A4B5
:10065800F6D70F06D8A010060F28EEE11028D8B458
:100668001200EAD70F501102F3CF13F0F4CF14F0B1
:100678000F501202F350142610501102F350142692
:1006880013C00FF014C010F01200106E10C00FF05D
:10069800D8900F36D8900F360F28C26E12000F6E02
:0A06A8009EA8FED70FC0ADFF1200A0
:107DEE00000000C1C081C1400101C3C00380024137
:107DFE00C201C6C006800741C70005C1C581C44087
:107E0E000401CCC00C800D41CD000FC1CF81CE40FE
:107E1E000E000AC1CA81CB400B01C9C009800841BE
:107E2E00C801D8C018801941D9001BC1DB81DA40C6
:107E3E001A001EC1DE81DF401F01DDC01D801C4106
:107E4E00DC0014C1D481D5401501D7C0178016416E
:107E5E00D601D2C012801341D30011C1D181D040BE
:107E6E001001F0C030803141F10033C1F381F24096
:107E7E00320036C1F681F7403701F5C03580344106
:107E8E00F4003CC1FC81FD403D01FFC03F803E41FE
:107E9E00FE01FAC03A803B41FB0039C1F981F8403E
:107EAE00380028C1E881E9402901EBC02B802A4126
:107EBE00EA01EEC02E802F41EF002DC1ED81EC4086
:107ECE002C01E4C024802541E50027C1E781E6406E
:107EDE00260022C1E281E3402301E1C0218020413E
:107EEE00E001A0C060806141A10063C1A381A240F6
:107EFE00620066C1A681A7406701A5C06580644186
:107F0E00A4006CC1AC81AD406D01AFC06F806E41FD
:107F1E00AE01AAC06A806B41AB0069C1A981A840BD
:107F2E00680078C1B881B9407901BBC07B807A41C5
:107F3E00BA01BEC07E807F41BF007DC1BD81BC4005
:107F4E007C01B4C074807541B50077C1B781B6406D
:107F5E00760072C1B281B3407301B1C071807041BD
:107F6E00B00050C190819140510193C05380524155
:107F7E00920196C056805741970055C19581944005
:107F8E0054019CC05C805D419D005FC19F819E40FD
:107F9E005E005AC19A819B405B0199C0598058413D
:107FAE00980188C04880494189004BC18B818A4025
:107FBE004A004EC18E818F404F018DC04D804C4185
:107FCE008C0044C184818540450187C0478046416D
:107FDE00860182C042804341830041C1818180403D
:107FEE00409600C800C800C800C2019001AE0190C2
:027FFE00010080
:020000040020DA
:08000000FFFFFFFFFFFFFFFF00
:020000040030CA
:0E000000FF02181EFF8180FF0FC00FE00F40AF
:00000001FF
