:040000005CEF00F0C1
:100008006082FACF01F0FBCF02F0E9CF03F0EACF2C
:1000180004F0E1CF05F0E2CF06F0D9CF07F0DACF50
:1000280008F0F3CF09F0F4CF0AF0F6CF0BF0F7CFD2
:100038000CF0F8CF0DF0F5CF0EF0F2A203D0F2924B
:10004800010E5E6EF2A003D081CF5FF0F2909EA207
:1000580011D09E925A4A5B2A5BBE0CD05B5004E1D9
:10006800640E5A5CD8A006D0000E5B6E000E5A6E65
:10007800010E5D6E0EC0F5FF0DC0F8FF0CC0F7FF56
:100088000BC0F6FF0AC0F4FF09C0F3FF08C0DAFF8F
:1000980007C0D9FF06C0E2FF05C0E1FF04C0EAFFC0
:1000A80003C0E9FF02C0FBFF01C0FAFF6092110024
:1000B8002CEF03F0000E4B6EC4EC02F0000E106E35
:1000C800C80E0F6E68EC03F08184818281805D50D8
:1000D800D8B4FDD7000E5D6E4B2A040E4B18D8A479
:1000E80003D08180819206D0080E4B18D8A404D082
:1000F80081908182819408D00B0E4B6405D0819049
:1001080081928184000E4B6E47EC01F0810E5224DF
:10011800386EFF0E5320396E810E54243A6EFF0E4E
:1001280055203B6E810E5624456EFF0E5720466EB5
:10013800810E5824476EFF0E5920486E47C036F08E
:1001480048C037F0361E371E364A372A45503624FF
:100158004C6E465037204D6E4CC036F04DC037F0CF
:10016800D89036363736D89036363736D890363631
:10017800373636C04CF037C04DF04DBE0AD0E90EC8
:100188004C5C030E4D58D8A004D0030E4D6EE80EFB
:100198004C6E4DAE0AD0180E4C5CFC0E4D58D8B0C3
:1001A80004D0FC0E4D6E180E4C6E475045244E6E12
:1001B800485046204F6E4EC036F04FC037F0D890AA
:1001C80036363736D89036363736D89036363736CC
:1001D80036C04EF037C04FF04FBE0AD0E90E4E5C25
:1001E800030E4F58D8A004D0030E4F6EE80E4E6E83
:1001F8004FAE0AD0180E4E5CFC0E4F58D8B004D043
:10020800FC0E4F6E180E4E6E4EC050F04FC051F09F
:1002180050C044F051C043F04CC050F04DC051F0B4
:1002280050C041F051C042F042C03CF041C03DF0E6
:1002380043C03EF044C03FF0910E156E040E166E9A
:100248003C0E176E000E186EC00E196E000E1A6E58
:10025800000EFBEC01F0496E200E496038D7000E05
:100268004A6E0CD04A50010DC00EF324D96E000E10
:10027800F420DA6EDF509CEC03F04A2A49504A5CBD
:10028800D8B025D7EFD7F70EF66E7F0EF76E20EEB3
:100298001EF0070E0900F5CFDEFFE806FBE2EF0EC1
:1002A800F66E7F0EF76E20EE26F0070E0900F5CFEA
:1002B800DEFFE806FBE24FEC03F00FC030F010C0A1
:1002C80031F05C50D8B404D0020E5C18D8A40FD01A
:1002D80030C01CF031C01DF01C1E1D1E1C4A1D2AFA
:1002E800FF0E1C24346E030E1D20356E04D030C062
:1002F80034F031C035F05C50020D1E0EF324D96E77
:10030800000EF420DA6EDECF2EF0DDCF2FF05C5039
:10031800020D260EF324D96E000EF420DA6EDECF1D
:1003280032F0DDCF33F02E50345C2F503558D8B032
:1003380005D0000E356E000E346E0ED02EC01CF0A7
:100348002FC01DF01C1E1D1E1C4A1D2A34501C24C3
:10035800346E35501D20356E3450325C355033586C
:10036800D8B004D032C034F033C035F034C00FF008
:1003780035C010F0000E126E11687FEC03F00FC04C
:1003880015F010C016F032C017F033C018F003ECA7
:1003980003F05C50020D520EF324D96E000EF420C7
:1003A800DA6E15C0DEFF16C0DDFF5C50020D520E7E
:1003B800F324D96E000EF420DA6EDE52DE04D8A0E3
:1003C8000CD05C50020D520EF324D96E000EF420AE
:1003D800DA6EFF0EDE6E000EDD6E5C2A030E5C64C4
:1003E80002D0000E5C6E5C5092EC03F012001B6EA3
:1003F800000E1D6E210E166068D01D50010DF350C1
:100408001924D96EF4501A20DA6E240EDF6E1D2AD4
:1004180019C00FF01AC010F01D0E116E000E126EEA
:100428001B506BEC02F00009D8A402D0000E120099
:1004380019C00FF01AC010F01D0E116E000E126ECA
:1004480015506BEC02F00009D8A402D0000E12007F
:1004580019C00FF01AC010F01D0E116E000E126EAA
:1004680016506BEC02F00009D8A402D0000E12005E
:10047800000E1C6E19D019C00FF01AC010F01D0E16
:10048800116E000E126E1C50010DF3501724D96E18
:10049800F4501820DA6EDF506BEC02F00009D8A493
:1004A80002D0000E12001C2A16501C5CD8A0E3D7FC
:1004B8001D50010DF3501924D96EF4501A20DA6E2C
:1004C8000D0EDF6E1D2A1D501200000E1200146E54
:1004D80011C0D9FF12C0DAFF1F0EDF6402D0000E70
:1004E8001200240E1418D8B408D0100E1418D8B45A
:1004F80004D00D0E1418D8A41CD011C0D9FF12C0F6
:10050800DAFFDF50136E1350010DF3500F24D96E2C
:10051800F4501020DA6E100EDF6E11C0D9FF12C031
:10052800DAFFDF50136E132811C0D9FF12C0DAFFAB
:10053800DF6E11C0D9FF12C0DAFF1F0EDF6402D0D0
:10054800000E120011C0D9FF12C0DAFFDF50136E7F
:100558001350010DF3500F24D96EF4501020DA6EA9
:1005680014C0DFFF11C0D9FF12C0DAFFDF50136ECD
:10057800132811C0D9FF12C0DAFFDF6E010E120076
:10058800F29E000EC26EC198C19AC186C194C18202
:10059800C180000EC06EC08EC08AC088C086C0846C
:1005A800C082C080DF0E926E808AF80E936EF19E34
:1005B800BF0E946EAC84130EAF6EAC98AB8EAB8846
:1005C800AB9A9D989D9AAC9CAB9CAC8AB898B89A0B
:1005D800480ECB6E000ECA6ECA92CA80CA8CCA8AEE
:1005E800CA88CA86CA84000EF26EF298F2969D8274
:1005F800F28C000EF16EF19EF19CF28E1200000E4C
:100608001A6E000E196E17501810D8B41CD0010EAF
:100618001B6E04D0D890173618361B2A18AEFAD796
:10062800D89019361A361750155C18501658D8A095
:1006380005D01750155E1850165A1980D8901832E0
:1006480017321B2EEDD719C015F01AC016F012007C
:1006580001EE80F014EE00F0EE6AE550E150FCE1A6
:10066800E250FAE101EE00F0800EEE6AE806FDE1E4
:1006780000EE80F0600EEE6AE806FDE100EE52F052
:100688000E0EEE6AE806FDE160906092000EF86ECC
:1006980000015EEF00F0C282C2B2FED7C4CF15F0EF
:1006A800166A1550126E116A000E1114156E030E9B
:1006B8001214166E1550C310136E1650146E13C014
:1006C8000FF014C010F012000DD0640E116E06D099
:1006D800040E126E12061228D8A4FCD7110611288F
:1006E800D8A4F6D70F06D8A010060F28EEE11028D8
:1006F800D8B41200EAD70F501102F3CF13F0F4CF99
:1007080014F00F501202F350142610501102F35037
:10071800142613C00FF014C010F01200106E10C091
:100728000FF0D8900F36D8900F360F28C26E1200EF
:0C0738000F6E9EA8FED70FC0ADFF120090
:107DEE00000000C1C081C1400101C3C00380024137
:107DFE00C201C6C006800741C70005C1C581C44087
:107E0E000401CCC00C800D41CD000FC1CF81CE40FE
:107E1E000E000AC1CA81CB400B01C9C009800841BE
:107E2E00C801D8C018801941D9001BC1DB81DA40C6
:107E3E001A001EC1DE81DF401F01DDC01D801C4106
:107E4E00DC0014C1D481D5401501D7C0178016416E
:107E5E00D601D2C012801341D30011C1D181D040BE
:107E6E001001F0C030803141F10033C1F381F24096
:107E7E00320036C1F681F7403701F5C03580344106
:107E8E00F4003CC1FC81FD403D01FFC03F803E41FE
:107E9E00FE01FAC03A803B41FB0039C1F981F8403E
:107EAE00380028C1E881E9402901EBC02B802A4126
:107EBE00EA01EEC02E802F41EF002DC1ED81EC4086
:107ECE002C01E4C024802541E50027C1E781E6406E
:107EDE00260022C1E281E3402301E1C0218020413E
:107EEE00E001A0C060806141A10063C1A381A240F6
:107EFE00620066C1A681A7406701A5C06580644186
:107F0E00A4006CC1AC81AD406D01AFC06F806E41FD
:107F1E00AE01AAC06A806B41AB0069C1A981A840BD
:107F2E00680078C1B881B9407901BBC07B807A41C5
:107F3E00BA01BEC07E807F41BF007DC1BD81BC4005
:107F4E007C01B4C074807541B50077C1B781B6406D
:107F5E00760072C1B281B3407301B1C071807041BD
:107F6E00B00050C190819140510193C05380524155
:107F7E00920196C056805741970055C19581944005
:107F8E0054019CC05C805D419D005FC19F819E40FD
:107F9E005E005AC19A819B405B0199C0598058413D
:107FAE00980188C04880494189004BC18B818A4025
:107FBE004A004EC18E818F404F018DC04D804C4185
:107FCE008C0044C184818540450187C0478046416D
:107FDE00860182C042804341830041C1818180403D
:107FEE00409600C800C800C800C2019001AE0190C2
:027FFE00010080
:020000040020DA
:08000000FFFFFFFFFFFFFFFF00
:020000040030CA
:0E000000FF02181EFF8180FF0FC00FE00F40AF
:00000001FF
